{"abi":[{"type":"constructor","inputs":[{"name":"_router","type":"address","internalType":"address"},{"name":"_lendingPool","type":"address","internalType":"address"},{"name":"_oracle","type":"address","internalType":"address"},{"name":"_usdc","type":"address","internalType":"address"},{"name":"_weth","type":"address","internalType":"address"},{"name":"_targetPrice","type":"uint256","internalType":"uint256"}],"stateMutability":"nonpayable"},{"type":"receive","stateMutability":"payable"},{"type":"function","name":"deposit","inputs":[],"outputs":[],"stateMutability":"payable"},{"type":"function","name":"executeProfitTaking","inputs":[],"outputs":[],"stateMutability":"nonpayable"},{"type":"function","name":"getPrice","inputs":[],"outputs":[{"name":"","type":"uint256","internalType":"uint256"}],"stateMutability":"view"},{"type":"function","name":"i_lendingPool","inputs":[],"outputs":[{"name":"","type":"address","internalType":"address"}],"stateMutability":"view"},{"type":"function","name":"i_oracle","inputs":[],"outputs":[{"name":"","type":"address","internalType":"address"}],"stateMutability":"view"},{"type":"function","name":"i_router","inputs":[],"outputs":[{"name":"","type":"address","internalType":"address"}],"stateMutability":"view"},{"type":"function","name":"i_usdc","inputs":[],"outputs":[{"name":"","type":"address","internalType":"address"}],"stateMutability":"view"},{"type":"function","name":"i_weth","inputs":[],"outputs":[{"name":"","type":"address","internalType":"address"}],"stateMutability":"view"},{"type":"function","name":"targetPrice","inputs":[],"outputs":[{"name":"","type":"uint256","internalType":"uint256"}],"stateMutability":"view"},{"type":"event","name":"Deposit","inputs":[{"name":"user","type":"address","indexed":true,"internalType":"address"},{"name":"amount","type":"uint256","indexed":false,"internalType":"uint256"}],"anonymous":false},{"type":"event","name":"ProfitTaken","inputs":[{"name":"ethAmount","type":"uint256","indexed":false,"internalType":"uint256"},{"name":"usdcAmount","type":"uint256","indexed":false,"internalType":"uint256"},{"name":"price","type":"uint256","indexed":false,"internalType":"uint256"}],"anonymous":false}],"bytecode":{"object":"0x610120346100f057601f61091238819003918201601f19168301916001600160401b038311848410176100f55780849260c0946040528339810103126100f0576100488161010b565b6100546020830161010b565b6100606040840161010b565b61006c6060850161010b565b9160a061007b6080870161010b565b9501519360805260a05260c05260e0526101009182526000556040516107f2918261012083396080518281816101d301526105b2015260a05182818161031601526105f5015260c05182818161056f01526106ce015260e051828181609e015261024301525181818161017c01526106380152f35b600080fd5b634e487b7160e01b600052604160045260246000fd5b51906001600160a01b03821682036100f05756fe60806040818152600436101561001f575b5050361561001d57600080fd5b005b600091823560e01c9081634dbe7e921461062457508063525b8a95146105e1578063581bdd161461059e5780635cb2deb51461055b57806363f165121461014957806398d5fdca14610126578063d0e30db0146100ed578063dc38679c146100d15763ff40e1d00361001057346100cd57816003193601126100cd57517f00000000000000000000000000000000000000000000000000000000000000006001600160a01b03168152602090f35b5080fd5b50346100cd57816003193601126100cd57602091549051908152f35b50816003193601126100cd57513481527fe1fffcc4923d04b559f4d29a8bfc6cda04eb5b0d3c460751c2402c5c5cc9109c60203392a280f35b50346100cd57816003193601126100cd576020906101426106b9565b9051908152f35b50346100cd57816003193601126100cd576101626106b9565b8254811061051757479081156104e2576001600160a01b037f00000000000000000000000000000000000000000000000000000000000000008116803b156104de578451630d0e30db60e41b8152868160048188865af180156104d4576104c1575b50845163095ea7b360e01b81527f00000000000000000000000000000000000000000000000000000000000000006001600160a01b038116600483015260248201869052906020816044818b875af180156104b757610498575b5085519261010084019284841067ffffffffffffffff851117610482579287529183527f000000000000000000000000000000000000000000000000000000000000000082166020808501828152610bb8868a019081523060608801908152426080890190815260a089018b815260c08a018e815260e08b018f81528e5163414bf38960e01b81529b518b1660048d015295518a1660248c0152935162ffffff1660448b01529151881660648a01525160848901525160a48801525160c487015251841660e4860152889391928590610104908290879086165af1938415610478578394610444575b50865163095ea7b360e01b81527f00000000000000000000000000000000000000000000000000000000000000006001600160a01b0381166004830152602482018690529060208160448188885af1801561043a5761040b575b501690813b15610407578291608483928951948593849263e8eda9df60e01b845260048401528860248401523060448401528160648401525af180156103fd576103df575b50927fc3116b5ebbbc0f85f6827c2dbe921b0f0baf6d4dc58dec17553b99aa01d9ea54928560609381519384526020840152820152a180f35b6103ec9094939294610667565b6103f957909184386103a6565b8480fd5b86513d84823e3d90fd5b8280fd5b61042c9060203d602011610433575b610424818361067b565b8101906107a4565b5038610361565b503d61041a565b89513d87823e3d90fd5b9093506020813d602011610470575b816104606020938361067b565b8101031261040757519238610307565b3d9150610453565b87513d85823e3d90fd5b634e487b7160e01b600052604160045260246000fd5b6104b09060203d60201161043357610424818361067b565b503861021e565b87513d8a823e3d90fd5b6104cd90969196610667565b94386101c4565b86513d89823e3d90fd5b8580fd5b825162461bcd60e51b815260206004820152600e60248201526d04e6f2045544820746f20737761760941b6044820152606490fd5b815162461bcd60e51b815260206004820152601860248201527f546172676574207072696365206e6f74207265616368656400000000000000006044820152606490fd5b50346100cd57816003193601126100cd57517f00000000000000000000000000000000000000000000000000000000000000006001600160a01b03168152602090f35b50346100cd57816003193601126100cd57517f00000000000000000000000000000000000000000000000000000000000000006001600160a01b03168152602090f35b50346100cd57816003193601126100cd57517f00000000000000000000000000000000000000000000000000000000000000006001600160a01b03168152602090f35b8390346100cd57816003193601126100cd577f00000000000000000000000000000000000000000000000000000000000000006001600160a01b03168152602090f35b67ffffffffffffffff811161048257604052565b90601f8019910116810190811067ffffffffffffffff82111761048257604052565b519069ffffffffffffffffffff821682036106b457565b600080fd5b604051633fabe5a360e21b815260a0816004817f00000000000000000000000000000000000000000000000000000000000000006001600160a01b03165afa90811561079857600091610749575b5060008113156107145790565b60405162461bcd60e51b815260206004820152600d60248201526c496e76616c696420707269636560981b6044820152606490fd5b9060a0823d8211610790575b8161076260a0938361067b565b8101031261078d57506107748161069d565b5061078660806020830151920161069d565b5038610707565b80fd5b3d9150610755565b6040513d6000823e3d90fd5b908160209103126106b4575180151581036106b4579056fea26469706673582212203d7666deb7464ee423115f335079dd1ea758c0224559318ddfdabd78f076286864736f6c63430008140033","linkReferences":{}},"methodIdentifiers":{"deposit()":"d0e30db0","executeProfitTaking()":"63f16512","getPrice()":"98d5fdca","i_lendingPool()":"525b8a95","i_oracle()":"5cb2deb5","i_router()":"581bdd16","i_usdc()":"ff40e1d0","i_weth()":"4dbe7e92","targetPrice()":"dc38679c"},"id":17}